{
  "contractName": "Token",
  "abi": [
    {
      "inputs": [
        {
          "internalType": "uint256",
          "name": "_totalSupply",
          "type": "uint256"
        }
      ],
      "stateMutability": "nonpayable",
      "type": "constructor"
    },
    {
      "inputs": [
        {
          "internalType": "address",
          "name": "",
          "type": "address"
        }
      ],
      "name": "balances",
      "outputs": [
        {
          "internalType": "uint256",
          "name": "",
          "type": "uint256"
        }
      ],
      "stateMutability": "view",
      "type": "function",
      "constant": true
    },
    {
      "inputs": [],
      "name": "decimal",
      "outputs": [
        {
          "internalType": "uint256",
          "name": "",
          "type": "uint256"
        }
      ],
      "stateMutability": "view",
      "type": "function",
      "constant": true
    },
    {
      "inputs": [],
      "name": "minter",
      "outputs": [
        {
          "internalType": "address",
          "name": "",
          "type": "address"
        }
      ],
      "stateMutability": "view",
      "type": "function",
      "constant": true
    },
    {
      "inputs": [],
      "name": "name",
      "outputs": [
        {
          "internalType": "string",
          "name": "",
          "type": "string"
        }
      ],
      "stateMutability": "view",
      "type": "function",
      "constant": true
    },
    {
      "inputs": [],
      "name": "symple",
      "outputs": [
        {
          "internalType": "string",
          "name": "",
          "type": "string"
        }
      ],
      "stateMutability": "view",
      "type": "function",
      "constant": true
    },
    {
      "inputs": [],
      "name": "tokenPrice",
      "outputs": [
        {
          "internalType": "uint256",
          "name": "",
          "type": "uint256"
        }
      ],
      "stateMutability": "view",
      "type": "function",
      "constant": true
    },
    {
      "inputs": [],
      "name": "totalSupply",
      "outputs": [
        {
          "internalType": "uint256",
          "name": "",
          "type": "uint256"
        }
      ],
      "stateMutability": "view",
      "type": "function",
      "constant": true
    },
    {
      "inputs": [
        {
          "internalType": "address",
          "name": "_to",
          "type": "address"
        },
        {
          "internalType": "uint256",
          "name": "amount",
          "type": "uint256"
        }
      ],
      "name": "transfer",
      "outputs": [],
      "stateMutability": "nonpayable",
      "type": "function"
    },
    {
      "inputs": [
        {
          "internalType": "address",
          "name": "_to",
          "type": "address"
        },
        {
          "internalType": "uint256",
          "name": "amount",
          "type": "uint256"
        }
      ],
      "name": "mint",
      "outputs": [],
      "stateMutability": "nonpayable",
      "type": "function"
    },
    {
      "inputs": [
        {
          "internalType": "uint256",
          "name": "amount",
          "type": "uint256"
        }
      ],
      "name": "buy",
      "outputs": [],
      "stateMutability": "payable",
      "type": "function",
      "payable": true
    }
  ],
  "bytecode": "0x60806040523480156200001157600080fd5b5060405162000f4838038062000f48833981810160405281019062000037919062000228565b806003819055506040518060400160405280600a81526020017f5465737420746f6b656e00000000000000000000000000000000000000000000815250600090805190602001906200008b92919062000138565b506040518060400160405280600381526020017f545354000000000000000000000000000000000000000000000000000000000081525060019080519060200190620000d992919062000138565b50600860028190555033600460006101000a81548173ffffffffffffffffffffffffffffffffffffffff021916908373ffffffffffffffffffffffffffffffffffffffff16021790555066038d7ea4c6800060058190555050620002bf565b828054620001469062000289565b90600052602060002090601f0160209004810192826200016a5760008555620001b6565b82601f106200018557805160ff1916838001178555620001b6565b82800160010185558215620001b6579182015b82811115620001b557825182559160200191906001019062000198565b5b509050620001c59190620001c9565b5090565b5b80821115620001e4576000816000905550600101620001ca565b5090565b600080fd5b6000819050919050565b6200020281620001ed565b81146200020e57600080fd5b50565b6000815190506200022281620001f7565b92915050565b600060208284031215620002415762000240620001e8565b5b6000620002518482850162000211565b91505092915050565b7f4e487b7100000000000000000000000000000000000000000000000000000000600052602260045260246000fd5b60006002820490506001821680620002a257607f821691505b60208210811415620002b957620002b86200025a565b5b50919050565b610c7980620002cf6000396000f3fe6080604052600436106100915760003560e01c806376809ce31161005957806376809ce31461017d5780637ff9b596146101a8578063a9059cbb146101d3578063d96a094a146101fc578063dbd3f0a61461021857610091565b806306fdde031461009657806307546172146100c157806318160ddd146100ec57806327e235e31461011757806340c10f1914610154575b600080fd5b3480156100a257600080fd5b506100ab610243565b6040516100b891906107e2565b60405180910390f35b3480156100cd57600080fd5b506100d66102d1565b6040516100e39190610845565b60405180910390f35b3480156100f857600080fd5b506101016102f7565b60405161010e9190610879565b60405180910390f35b34801561012357600080fd5b5061013e600480360381019061013991906108c5565b6102fd565b60405161014b9190610879565b60405180910390f35b34801561016057600080fd5b5061017b6004803603810190610176919061091e565b610315565b005b34801561018957600080fd5b50610192610418565b60405161019f9190610879565b60405180910390f35b3480156101b457600080fd5b506101bd61041e565b6040516101ca9190610879565b60405180910390f35b3480156101df57600080fd5b506101fa60048036038101906101f5919061091e565b610424565b005b6102166004803603810190610211919061095e565b610556565b005b34801561022457600080fd5b5061022d6106bb565b60405161023a91906107e2565b60405180910390f35b60008054610250906109ba565b80601f016020809104026020016040519081016040528092919081815260200182805461027c906109ba565b80156102c95780601f1061029e576101008083540402835291602001916102c9565b820191906000526020600020905b8154815290600101906020018083116102ac57829003601f168201915b505050505081565b600460009054906101000a900473ffffffffffffffffffffffffffffffffffffffff1681565b60035481565b60066020528060005260406000206000915090505481565b600460009054906101000a900473ffffffffffffffffffffffffffffffffffffffff1673ffffffffffffffffffffffffffffffffffffffff163373ffffffffffffffffffffffffffffffffffffffff16146103a5576040517f08c379a000000000000000000000000000000000000000000000000000000000815260040161039c90610a38565b60405180910390fd5b80600660008473ffffffffffffffffffffffffffffffffffffffff1673ffffffffffffffffffffffffffffffffffffffff16815260200190815260200160002060008282546103f49190610a87565b92505081905550806003600082825461040d9190610a87565b925050819055505050565b60025481565b60055481565b80600660003373ffffffffffffffffffffffffffffffffffffffff1673ffffffffffffffffffffffffffffffffffffffff1681526020019081526020016000205410156104a6576040517f08c379a000000000000000000000000000000000000000000000000000000000815260040161049d90610b29565b60405180910390fd5b80600660003373ffffffffffffffffffffffffffffffffffffffff1673ffffffffffffffffffffffffffffffffffffffff16815260200190815260200160002060008282546104f59190610b49565b9250508190555080600660008473ffffffffffffffffffffffffffffffffffffffff1673ffffffffffffffffffffffffffffffffffffffff168152602001908152602001600020600082825461054b9190610a87565b925050819055505050565b60035481111561059b576040517f08c379a000000000000000000000000000000000000000000000000000000000815260040161059290610b29565b60405180910390fd5b600554816105a99190610b7d565b34146105ea576040517f08c379a00000000000000000000000000000000000000000000000000000000081526004016105e190610c23565b60405180910390fd5b80600660003373ffffffffffffffffffffffffffffffffffffffff1673ffffffffffffffffffffffffffffffffffffffff16815260200190815260200160002060008282546106399190610a87565b925050819055508060066000600460009054906101000a900473ffffffffffffffffffffffffffffffffffffffff1673ffffffffffffffffffffffffffffffffffffffff1673ffffffffffffffffffffffffffffffffffffffff16815260200190815260200160002060008282546106b19190610b49565b9250508190555050565b600180546106c8906109ba565b80601f01602080910402602001604051908101604052809291908181526020018280546106f4906109ba565b80156107415780601f1061071657610100808354040283529160200191610741565b820191906000526020600020905b81548152906001019060200180831161072457829003601f168201915b505050505081565b600081519050919050565b600082825260208201905092915050565b60005b83811015610783578082015181840152602081019050610768565b83811115610792576000848401525b50505050565b6000601f19601f8301169050919050565b60006107b482610749565b6107be8185610754565b93506107ce818560208601610765565b6107d781610798565b840191505092915050565b600060208201905081810360008301526107fc81846107a9565b905092915050565b600073ffffffffffffffffffffffffffffffffffffffff82169050919050565b600061082f82610804565b9050919050565b61083f81610824565b82525050565b600060208201905061085a6000830184610836565b92915050565b6000819050919050565b61087381610860565b82525050565b600060208201905061088e600083018461086a565b92915050565b600080fd5b6108a281610824565b81146108ad57600080fd5b50565b6000813590506108bf81610899565b92915050565b6000602082840312156108db576108da610894565b5b60006108e9848285016108b0565b91505092915050565b6108fb81610860565b811461090657600080fd5b50565b600081359050610918816108f2565b92915050565b6000806040838503121561093557610934610894565b5b6000610943858286016108b0565b925050602061095485828601610909565b9150509250929050565b60006020828403121561097457610973610894565b5b600061098284828501610909565b91505092915050565b7f4e487b7100000000000000000000000000000000000000000000000000000000600052602260045260246000fd5b600060028204905060018216806109d257607f821691505b602082108114156109e6576109e561098b565b5b50919050565b7f4f6e6c79206d696e7465722063616e206d696e74000000000000000000000000600082015250565b6000610a22601483610754565b9150610a2d826109ec565b602082019050919050565b60006020820190508181036000830152610a5181610a15565b9050919050565b7f4e487b7100000000000000000000000000000000000000000000000000000000600052601160045260246000fd5b6000610a9282610860565b9150610a9d83610860565b9250827fffffffffffffffffffffffffffffffffffffffffffffffffffffffffffffffff03821115610ad257610ad1610a58565b5b828201905092915050565b7f4e6f7420656e6f7567682076616c756500000000000000000000000000000000600082015250565b6000610b13601083610754565b9150610b1e82610add565b602082019050919050565b60006020820190508181036000830152610b4281610b06565b9050919050565b6000610b5482610860565b9150610b5f83610860565b925082821015610b7257610b71610a58565b5b828203905092915050565b6000610b8882610860565b9150610b9383610860565b9250817fffffffffffffffffffffffffffffffffffffffffffffffffffffffffffffffff0483118215151615610bcc57610bcb610a58565b5b828202905092915050565b7f596f75722076616c7565206973206e6f7420656e6f7567680000000000000000600082015250565b6000610c0d601883610754565b9150610c1882610bd7565b602082019050919050565b60006020820190508181036000830152610c3c81610c00565b905091905056fea2646970667358221220142f1692934f825f0ea57ed3f9e0e3e913efae3eb7c9f44ef05429aec0c38add64736f6c634300080b0033",
  "immutableReferences": {},
  "source": "// SPDX-License-Identifier: MIT\r\npragma solidity >=0.4.22 <0.9.0;\r\n\r\ncontract Token {\r\n\r\n\r\n    string public name;\r\n    string public symple;\r\n    uint public decimal;\r\n    uint256 public totalSupply;\r\n    address public minter;\r\n    uint256 public tokenPrice;\r\n    \r\n    mapping (address => uint256) public balances;\r\n\r\n\r\n    constructor(uint _totalSupply){\r\n\r\n        totalSupply = _totalSupply;\r\n        name = \"Test token\";\r\n        symple = \"TST\";\r\n        decimal = 8;\r\n        minter = msg.sender;\r\n        tokenPrice = 10**15 wei; //0.001 eth\r\n\r\n    }\r\n\r\n    function transfer (address _to , uint amount) public {\r\n\r\n        require(balances[msg.sender] >= amount , \"Not enough value\");\r\n        \r\n       balances[msg.sender] -= amount ;\r\n       balances[_to] += amount ;\r\n    \r\n    }\r\n\r\n\r\n    function mint (address _to , uint amount) public {\r\n\r\n        require(msg.sender == minter , \"Only minter can mint\");\r\n\r\n        balances[_to] += amount;\r\n        totalSupply += amount;\r\n    }\r\n\r\n    function buy(uint amount) public payable{\r\n\r\n        require(amount <= totalSupply , \"Not enough value\");\r\n        require(msg.value == amount * tokenPrice , \"Your value is not enough\");\r\n\r\n        balances[msg.sender] += amount;\r\n        balances[minter] -= amount;\r\n\r\n    }\r\n\r\n\r\n}\r\n",
  "sourcePath": "C:\\Users\\V I S I O N\\OneDrive\\Desktop\\Token\\token-contract\\contracts\\Token.sol",
  "compiler": {
    "name": "solc",
    "version": "0.8.11+commit.d7f03943.Emscripten.clang"
  },
  "schemaVersion": "3.4.4",
  "updatedAt": "2022-08-26T13:12:32.940Z",
  "networkType": "ethereum",
  "devdoc": {
    "kind": "dev",
    "methods": {},
    "version": 1
  },
  "userdoc": {
    "kind": "user",
    "methods": {},
    "version": 1
  }
}